{
  "contractName": "Migrations",
  "abi": [
    {
      "inputs": [],
      "stateMutability": "nonpayable",
      "type": "constructor"
    },
    {
      "inputs": [],
      "name": "lastCompletedMigration",
      "outputs": [
        {
          "internalType": "uint256",
          "name": "",
          "type": "uint256"
        }
      ],
      "stateMutability": "view",
      "type": "function"
    },
    {
      "inputs": [
        {
          "internalType": "uint256",
          "name": "completed",
          "type": "uint256"
        }
      ],
      "name": "setCompleted",
      "outputs": [],
      "stateMutability": "nonpayable",
      "type": "function"
    },
    {
      "inputs": [
        {
          "internalType": "address",
          "name": "newAddress",
          "type": "address"
        }
      ],
      "name": "upgrade",
      "outputs": [],
      "stateMutability": "nonpayable",
      "type": "function"
    }
  ],
  "bytecode": "0x608060405234801561001057600080fd5b5061014c806100206000396000f3fe608060405234801561001057600080fd5b50600436106100415760003560e01c80630900f01014610046578063fbdbad3c1461006e578063fdacd57614610088575b600080fd5b61006c6004803603602081101561005c57600080fd5b50356001600160a01b03166100a5565b005b61007661010b565b60408051918252519081900360200190f35b61006c6004803603602081101561009e57600080fd5b5035610111565b6000805460408051637ed66abb60e11b815260048101929092525183926001600160a01b0384169263fdacd576926024808301939282900301818387803b1580156100ef57600080fd5b505af1158015610103573d6000803e3d6000fd5b505050505050565b60005481565b60005556fea2646970667358221220485ec90d07a30875931bb4d8031d9e1931eaadb25c09f8700d3970019aa7c1e864736f6c63430006000033",
  "source": "pragma solidity >0.5.0 <0.7.0;\n\ncontract Migrations\n{\n\tuint256 public lastCompletedMigration;\n\n\tconstructor()\n\tpublic\n\t{\n\t}\n\n\tfunction setCompleted(uint completed) public\n\t{\n\t\tlastCompletedMigration = completed;\n\t}\n\n\tfunction upgrade(address newAddress) public\n\t{\n\t\tMigrations upgraded = Migrations(newAddress);\n\t\tupgraded.setCompleted(lastCompletedMigration);\n\t}\n}\n",
  "sourcePath": "/home/amxx/Work/Projects/SolStruct/contracts/tests/Migrations.sol",
  "compiler": {
    "name": "solc",
    "version": "0.6.0+commit.26b70077.Emscripten.clang"
  },
  "schemaVersion": "3.0.20",
  "updatedAt": "2019-12-20T23:32:40.091Z",
  "devdoc": {
    "methods": {}
  },
  "userdoc": {
    "methods": {}
  }
}