{
  "contractName": "Migrations",
  "abi": [
    {
      "inputs": [],
      "payable": false,
      "stateMutability": "nonpayable",
      "type": "constructor"
    },
    {
      "constant": true,
      "inputs": [],
      "name": "lastCompletedMigration",
      "outputs": [
        {
          "internalType": "uint256",
          "name": "",
          "type": "uint256"
        }
      ],
      "payable": false,
      "stateMutability": "view",
      "type": "function"
    },
    {
      "constant": false,
      "inputs": [
        {
          "internalType": "uint256",
          "name": "completed",
          "type": "uint256"
        }
      ],
      "name": "setCompleted",
      "outputs": [],
      "payable": false,
      "stateMutability": "nonpayable",
      "type": "function"
    },
    {
      "constant": false,
      "inputs": [
        {
          "internalType": "address",
          "name": "newAddress",
          "type": "address"
        }
      ],
      "name": "upgrade",
      "outputs": [],
      "payable": false,
      "stateMutability": "nonpayable",
      "type": "function"
    }
  ],
  "bytecode": "0x608060405234801561001057600080fd5b5061014b806100206000396000f3fe608060405234801561001057600080fd5b50600436106100415760003560e01c80630900f01014610046578063fbdbad3c1461006e578063fdacd57614610088575b600080fd5b61006c6004803603602081101561005c57600080fd5b50356001600160a01b03166100a5565b005b61007661010b565b60408051918252519081900360200190f35b61006c6004803603602081101561009e57600080fd5b5035610111565b6000805460408051637ed66abb60e11b815260048101929092525183926001600160a01b0384169263fdacd576926024808301939282900301818387803b1580156100ef57600080fd5b505af1158015610103573d6000803e3d6000fd5b505050505050565b60005481565b60005556fea265627a7a7231582038a327a7b018273563bd86ac9280db96e8ac0c87379154468d9e19caa34f63a364736f6c634300050c0032",
  "source": "pragma solidity ^0.5.0;\n\n\ncontract Migrations\n{\n\tuint256 public lastCompletedMigration;\n\n\tconstructor()\n\tpublic\n\t{\n\t}\n\n\tfunction setCompleted(uint completed) public\n\t{\n\t\tlastCompletedMigration = completed;\n\t}\n\n\tfunction upgrade(address newAddress) public\n\t{\n\t\tMigrations upgraded = Migrations(newAddress);\n\t\tupgraded.setCompleted(lastCompletedMigration);\n\t}\n}\n",
  "sourcePath": "/home/amxx/Work/SolStruct/contracts/tests/Migrations.sol",
  "compiler": {
    "name": "solc",
    "version": "0.5.12+commit.7709ece9.Emscripten.clang"
  },
  "schemaVersion": "3.0.16",
  "updatedAt": "2019-11-03T11:13:12.147Z",
  "devdoc": {
    "methods": {}
  },
  "userdoc": {
    "methods": {}
  }
}