{
  "contractName": "TestMap",
  "abi": [
    {
      "inputs": [],
      "stateMutability": "nonpayable",
      "type": "constructor"
    },
    {
      "inputs": [],
      "name": "length",
      "outputs": [
        {
          "internalType": "uint256",
          "name": "",
          "type": "uint256"
        }
      ],
      "stateMutability": "view",
      "type": "function"
    },
    {
      "inputs": [
        {
          "internalType": "uint256",
          "name": "_key",
          "type": "uint256"
        }
      ],
      "name": "value",
      "outputs": [
        {
          "internalType": "string",
          "name": "",
          "type": "string"
        }
      ],
      "stateMutability": "view",
      "type": "function"
    },
    {
      "inputs": [
        {
          "internalType": "uint256",
          "name": "_index",
          "type": "uint256"
        }
      ],
      "name": "keyAt",
      "outputs": [
        {
          "internalType": "uint256",
          "name": "",
          "type": "uint256"
        }
      ],
      "stateMutability": "view",
      "type": "function"
    },
    {
      "inputs": [
        {
          "internalType": "uint256",
          "name": "_index",
          "type": "uint256"
        }
      ],
      "name": "at",
      "outputs": [
        {
          "internalType": "uint256",
          "name": "",
          "type": "uint256"
        },
        {
          "internalType": "string",
          "name": "",
          "type": "string"
        }
      ],
      "stateMutability": "view",
      "type": "function"
    },
    {
      "inputs": [
        {
          "internalType": "uint256",
          "name": "_key",
          "type": "uint256"
        }
      ],
      "name": "indexOf",
      "outputs": [
        {
          "internalType": "uint256",
          "name": "",
          "type": "uint256"
        }
      ],
      "stateMutability": "view",
      "type": "function"
    },
    {
      "inputs": [
        {
          "internalType": "uint256",
          "name": "_key",
          "type": "uint256"
        }
      ],
      "name": "contains",
      "outputs": [
        {
          "internalType": "bool",
          "name": "",
          "type": "bool"
        }
      ],
      "stateMutability": "view",
      "type": "function"
    },
    {
      "inputs": [],
      "name": "keys",
      "outputs": [
        {
          "internalType": "uint256[]",
          "name": "",
          "type": "uint256[]"
        }
      ],
      "stateMutability": "view",
      "type": "function"
    },
    {
      "inputs": [
        {
          "internalType": "uint256",
          "name": "_key",
          "type": "uint256"
        },
        {
          "internalType": "string",
          "name": "_value",
          "type": "string"
        }
      ],
      "name": "set",
      "outputs": [
        {
          "internalType": "bool",
          "name": "",
          "type": "bool"
        }
      ],
      "stateMutability": "nonpayable",
      "type": "function"
    },
    {
      "inputs": [
        {
          "internalType": "uint256",
          "name": "_key",
          "type": "uint256"
        }
      ],
      "name": "del",
      "outputs": [
        {
          "internalType": "bool",
          "name": "",
          "type": "bool"
        }
      ],
      "stateMutability": "nonpayable",
      "type": "function"
    },
    {
      "inputs": [],
      "name": "clear",
      "outputs": [
        {
          "internalType": "bool",
          "name": "",
          "type": "bool"
        }
      ],
      "stateMutability": "nonpayable",
      "type": "function"
    }
  ],
  "bytecode": "0x608060405234801561001057600080fd5b5061099c806100206000396000f3fe608060405234801561001057600080fd5b506004361061009e5760003560e01c80636437197711610066578063643719771461016b57806391ac7e6514610218578063c34052e014610235578063c5a46ee614610252578063e0886f90146102e45761009e565b80631f7b6d32146100a3578063307540f6146100bd5780634223b5c21461011557806352efea6e1461013257806357771a231461014e575b600080fd5b6100ab610380565b60408051918252519081900360200190f35b6100c5610392565b60408051602080825283518183015283519192839290830191858101910280838360005b838110156101015781810151838201526020016100e9565b505050509050019250505060405180910390f35b6100ab6004803603602081101561012b57600080fd5b503561039e565b61013a6103b6565b604080519115158252519081900360200190f35b61013a6004803603602081101561016457600080fd5b50356103c2565b61013a6004803603604081101561018157600080fd5b813591908101906040810160208201356401000000008111156101a357600080fd5b8201836020820111156101b557600080fd5b803590602001918460018302840111640100000000831117156101d757600080fd5b91908080601f0160208091040260200160405190810160405280939291908181526020018383808284376000920191909152509295506103d4945050505050565b6100ab6004803603602081101561022e57600080fd5b50356103ee565b61013a6004803603602081101561024b57600080fd5b5035610400565b61026f6004803603602081101561026857600080fd5b5035610412565b6040805160208082528351818301528351919283929083019185019080838360005b838110156102a9578181015183820152602001610291565b50505050905090810190601f1680156102d65780820380516001836020036101000a031916815260200191505b509250505060405180910390f35b610301600480360360208110156102fa57600080fd5b5035610425565b6040518083815260200180602001828103825283818151815260200191508051906020019080838360005b8381101561034457818101518382015260200161032c565b50505050905090810190601f1680156103715780820380516001836020036101000a031916815260200191505b50935050505060405180910390f35b600061038c6000610442565b90505b90565b606061038c600061044d565b60006103b0818363ffffffff61045816565b92915050565b600061038c600061046a565b60006103b0818363ffffffff6104c516565b60006103e781848463ffffffff6104f116565b9392505050565b60006103b0818363ffffffff61053016565b60006103b0818363ffffffff61054216565b60606103b060008363ffffffff61055416565b60006060610439828463ffffffff6105f716565b91509150915091565b60006103b082610620565b60606103b082610624565b60006103e7838363ffffffff61068016565b60008061047683610620565b90505b80156104b25782600201600061048f8584610458565b815260200190815260200160002060006104a9919061084d565b60001901610479565b506104bc826106a7565b50600192915050565b60006104d7838363ffffffff61070d16565b50600082815260028401602052604081206104bc9161084d565b6000610503848463ffffffff6107db16565b5060008381526002850160209081526040909120835161052592850190610894565b506001949350505050565b60006103e7838363ffffffff61082216565b60006103e7838363ffffffff61083816565b600081815260028381016020908152604092839020805484516001821615610100026000190190911693909304601f810183900483028401830190945283835260609390918301828280156105ea5780601f106105bf576101008083540402835291602001916105ea565b820191906000526020600020905b8154815290600101906020018083116105cd57829003601f168201915b5050505050905092915050565b6000606060006106078585610458565b9050806106148683610554565b92509250509250929050565b5490565b60608160000180548060200260200160405190810160405280929190818152602001828054801561067457602002820191906000526020600020905b815481526020019060010190808311610660575b50505050509050919050565b600082600001600183038154811061069457fe5b9060005260206000200154905092915050565b80546000905b80156106f0578260010160008460000160018403815481106106cb57fe5b60009182526020808320909101548352820192909252604001812055600019016106ad565b5060408051600081526020810191829052516104bc918491610912565b60006107198383610838565b610725575060006103b0565b60006107318484610822565b9050600061073e85610620565b905080821461079d57600085600001600183038154811061075b57fe5b906000526020600020015490508086600001600185038154811061077b57fe5b6000918252602080832090910192909255918252600187019052604090208290555b600084815260018601602052604081205584548590806107b957fe5b6001900381819060005260206000200160009055905560019250505092915050565b60006107e78383610838565b156107f4575060006103b0565b5081546001808201845560008481526020808220909301849055845493815293810190915260409092205590565b6000908152600191909101602052604090205490565b60006108448383610822565b15159392505050565b50805460018160011615610100020316600290046000825580601f106108735750610891565b601f016020900490600052602060002090810190610891919061094c565b50565b828054600181600116156101000203166002900490600052602060002090601f016020900481019282601f106108d557805160ff1916838001178555610902565b82800160010185558215610902579182015b828111156109025782518255916020019190600101906108e7565b5061090e92915061094c565b5090565b82805482825590600052602060002090810192821561090257916020028201828111156109025782518255916020019190600101906108e7565b61038f91905b8082111561090e576000815560010161095256fea26469706673582212204005cc3c2192f12c57e857c458ac93acebce42568fa0698dad038b87e4f4524864736f6c63430006030033",
  "source": "pragma solidity >0.5.0 <0.7.0;\n\nimport \"../libs/LibMap.uint256.string.sol\";\n\ncontract TestMap\n{\n\tusing LibMap_uint256_string for LibMap_uint256_string.map;\n\n\tLibMap_uint256_string.map internal data;\n\n\tconstructor() public {}\n\n\tfunction length  (                                  ) public view returns (uint256               ) { return data.length();          }\n\tfunction value   (uint256 _key                      ) public view returns (string memory         ) { return data.value(_key);       }\n\tfunction keyAt   (uint256 _index                    ) public view returns (uint256               ) { return data.keyAt(_index);     }\n\tfunction at      (uint256 _index                    ) public view returns (uint256, string memory) { return data.at(_index);        }\n\tfunction indexOf (uint256 _key                      ) public view returns (uint256               ) { return data.indexOf(_key);     }\n\tfunction contains(uint256 _key                      ) public view returns (bool                  ) { return data.contains(_key);    }\n\tfunction keys    (                                  ) public view returns (uint256[] memory      ) { return data.keys();            }\n\tfunction set     (uint256 _key, string memory _value) public      returns (bool                  ) { return data.set(_key, _value); }\n\tfunction del     (uint256 _key                      ) public      returns (bool                  ) { return data.del(_key);         }\n\tfunction clear   (                                  ) public      returns (bool                  ) { return data.clear();           }\n}\n",
  "sourcePath": "/home/amxx/Work/Projects/SolStruct/contracts/tests/TestMap.sol",
  "compiler": {
    "name": "solc",
    "version": "0.6.3+commit.8dda9521.Emscripten.clang"
  },
  "schemaVersion": "3.0.23",
  "updatedAt": "2020-08-10T16:11:55.899Z",
  "devdoc": {
    "methods": {}
  },
  "userdoc": {
    "methods": {}
  }
}