{
  "contractName": "TestMap",
  "abi": [
    {
      "inputs": [],
      "stateMutability": "nonpayable",
      "type": "constructor"
    },
    {
      "inputs": [],
      "name": "length",
      "outputs": [
        {
          "internalType": "uint256",
          "name": "",
          "type": "uint256"
        }
      ],
      "stateMutability": "view",
      "type": "function"
    },
    {
      "inputs": [
        {
          "internalType": "uint256",
          "name": "_key",
          "type": "uint256"
        }
      ],
      "name": "value",
      "outputs": [
        {
          "internalType": "string",
          "name": "",
          "type": "string"
        }
      ],
      "stateMutability": "view",
      "type": "function"
    },
    {
      "inputs": [
        {
          "internalType": "uint256",
          "name": "_index",
          "type": "uint256"
        }
      ],
      "name": "keyAt",
      "outputs": [
        {
          "internalType": "uint256",
          "name": "",
          "type": "uint256"
        }
      ],
      "stateMutability": "view",
      "type": "function"
    },
    {
      "inputs": [
        {
          "internalType": "uint256",
          "name": "_index",
          "type": "uint256"
        }
      ],
      "name": "at",
      "outputs": [
        {
          "internalType": "uint256",
          "name": "",
          "type": "uint256"
        },
        {
          "internalType": "string",
          "name": "",
          "type": "string"
        }
      ],
      "stateMutability": "view",
      "type": "function"
    },
    {
      "inputs": [
        {
          "internalType": "uint256",
          "name": "_key",
          "type": "uint256"
        }
      ],
      "name": "indexOf",
      "outputs": [
        {
          "internalType": "uint256",
          "name": "",
          "type": "uint256"
        }
      ],
      "stateMutability": "view",
      "type": "function"
    },
    {
      "inputs": [
        {
          "internalType": "uint256",
          "name": "_key",
          "type": "uint256"
        }
      ],
      "name": "contains",
      "outputs": [
        {
          "internalType": "bool",
          "name": "",
          "type": "bool"
        }
      ],
      "stateMutability": "view",
      "type": "function"
    },
    {
      "inputs": [],
      "name": "keys",
      "outputs": [
        {
          "internalType": "uint256[]",
          "name": "",
          "type": "uint256[]"
        }
      ],
      "stateMutability": "view",
      "type": "function"
    },
    {
      "inputs": [
        {
          "internalType": "uint256",
          "name": "_key",
          "type": "uint256"
        },
        {
          "internalType": "string",
          "name": "_value",
          "type": "string"
        }
      ],
      "name": "set",
      "outputs": [
        {
          "internalType": "bool",
          "name": "",
          "type": "bool"
        }
      ],
      "stateMutability": "nonpayable",
      "type": "function"
    },
    {
      "inputs": [
        {
          "internalType": "uint256",
          "name": "_key",
          "type": "uint256"
        }
      ],
      "name": "del",
      "outputs": [
        {
          "internalType": "bool",
          "name": "",
          "type": "bool"
        }
      ],
      "stateMutability": "nonpayable",
      "type": "function"
    },
    {
      "inputs": [],
      "name": "clear",
      "outputs": [
        {
          "internalType": "bool",
          "name": "",
          "type": "bool"
        }
      ],
      "stateMutability": "nonpayable",
      "type": "function"
    }
  ],
  "bytecode": "0x608060405234801561001057600080fd5b5061094e806100206000396000f3fe608060405234801561001057600080fd5b506004361061009e5760003560e01c80636437197711610066578063643719771461016b57806391ac7e6514610218578063c34052e014610235578063c5a46ee614610252578063e0886f90146102e45761009e565b80631f7b6d32146100a3578063307540f6146100bd5780634223b5c21461011557806352efea6e1461013257806357771a231461014e575b600080fd5b6100ab610380565b60408051918252519081900360200190f35b6100c5610391565b60408051602080825283518183015283519192839290830191858101910280838360005b838110156101015781810151838201526020016100e9565b505050509050019250505060405180910390f35b6100ab6004803603602081101561012b57600080fd5b503561039d565b61013a6103af565b604080519115158252519081900360200190f35b61013a6004803603602081101561016457600080fd5b50356103bb565b61013a6004803603604081101561018157600080fd5b813591908101906040810160208201356401000000008111156101a357600080fd5b8201836020820111156101b557600080fd5b803590602001918460018302840111640100000000831117156101d757600080fd5b91908080601f0160208091040260200160405190810160405280939291908181526020018383808284376000920191909152509295506103c7945050505050565b6100ab6004803603602081101561022e57600080fd5b50356103db565b61013a6004803603602081101561024b57600080fd5b50356103e7565b61026f6004803603602081101561026857600080fd5b50356103f3565b6040805160208082528351818301528351919283929083019185019080838360005b838110156102a9578181015183820152602001610291565b50505050905090810190601f1680156102d65780820380516001836020036101000a031916815260200191505b509250505060405180910390f35b610301600480360360208110156102fa57600080fd5b5035610400565b6040518083815260200180602001828103825283818151815260200191508051906020019080838360005b8381101561034457818101518382015260200161032c565b50505050905090810190601f1680156103715780820380516001836020036101000a031916815260200191505b50935050505060405180910390f35b600061038c6000610417565b905090565b606061038c6000610422565b60006103a9818361042d565b92915050565b600061038c6000610439565b60006103a98183610494565b60006103d48184846104ba565b9392505050565b60006103a981836104f3565b60006103a981836104ff565b60606103a960008361050b565b6000606061040e82846105ae565b91509150915091565b60006103a9826105d7565b60606103a9826105db565b60006103d48383610637565b600080610445836105d7565b90505b80156104815782600201600061045e858461042d565b815260200190815260200160002060006104789190610804565b60001901610448565b5061048b8261065e565b50600192915050565b60006104a083836106c4565b506000828152600284016020526040812061048b91610804565b60006104c68484610792565b506000838152600285016020908152604090912083516104e89285019061084b565b506001949350505050565b60006103d483836107d9565b60006103d483836107ef565b600081815260028381016020908152604092839020805484516001821615610100026000190190911693909304601f810183900483028401830190945283835260609390918301828280156105a15780601f10610576576101008083540402835291602001916105a1565b820191906000526020600020905b81548152906001019060200180831161058457829003601f168201915b5050505050905092915050565b6000606060006105be858561042d565b9050806105cb868361050b565b92509250509250929050565b5490565b60608160000180548060200260200160405190810160405280929190818152602001828054801561062b57602002820191906000526020600020905b815481526020019060010190808311610617575b50505050509050919050565b600082600001600183038154811061064b57fe5b9060005260206000200154905092915050565b80546000905b80156106a75782600101600084600001600184038154811061068257fe5b6000918252602080832090910154835282019290925260400181205560001901610664565b50604080516000815260208101918290525161048b9184916108c9565b60006106d083836107ef565b6106dc575060006103a9565b60006106e884846107d9565b905060006106f5856105d7565b905080821461075457600085600001600183038154811061071257fe5b906000526020600020015490508086600001600185038154811061073257fe5b6000918252602080832090910192909255918252600187019052604090208290555b6000848152600186016020526040812055845485908061077057fe5b6001900381819060005260206000200160009055905560019250505092915050565b600061079e83836107ef565b156107ab575060006103a9565b5081546001808201845560008481526020808220909301849055845493815293810190915260409092205590565b6000908152600191909101602052604090205490565b60006107fb83836107d9565b15159392505050565b50805460018160011615610100020316600290046000825580601f1061082a5750610848565b601f0160209004906000526020600020908101906108489190610903565b50565b828054600181600116156101000203166002900490600052602060002090601f016020900481019282601f1061088c57805160ff19168380011785556108b9565b828001600101855582156108b9579182015b828111156108b957825182559160200191906001019061089e565b506108c5929150610903565b5090565b8280548282559060005260206000209081019282156108b957916020028201828111156108b957825182559160200191906001019061089e565b5b808211156108c5576000815560010161090456fea26469706673582212202427905eb45474829bae7a7c30c9ecd6f953af48917d75a37740bf13bc30fa5264736f6c63430007000033",
  "immutableReferences": {},
  "source": "pragma solidity >0.5.0 <0.8.0;\n\nimport \"../libs/LibMap.uint256.string.sol\";\n\ncontract TestMap\n{\n\tusing LibMap_uint256_string for LibMap_uint256_string.map;\n\n\tLibMap_uint256_string.map internal data;\n\n\tconstructor() public {}\n\n\tfunction length  (                                  ) public view returns (uint256               ) { return data.length();          }\n\tfunction value   (uint256 _key                      ) public view returns (string memory         ) { return data.value(_key);       }\n\tfunction keyAt   (uint256 _index                    ) public view returns (uint256               ) { return data.keyAt(_index);     }\n\tfunction at      (uint256 _index                    ) public view returns (uint256, string memory) { return data.at(_index);        }\n\tfunction indexOf (uint256 _key                      ) public view returns (uint256               ) { return data.indexOf(_key);     }\n\tfunction contains(uint256 _key                      ) public view returns (bool                  ) { return data.contains(_key);    }\n\tfunction keys    (                                  ) public view returns (uint256[] memory      ) { return data.keys();            }\n\tfunction set     (uint256 _key, string memory _value) public      returns (bool                  ) { return data.set(_key, _value); }\n\tfunction del     (uint256 _key                      ) public      returns (bool                  ) { return data.del(_key);         }\n\tfunction clear   (                                  ) public      returns (bool                  ) { return data.clear();           }\n}\n",
  "sourcePath": "/home/amxx/Work/Projects/SolStruct/contracts/tests/TestMap.sol",
  "compiler": {
    "name": "solc",
    "version": "0.7.0+commit.9e61f92b.Emscripten.clang"
  },
  "schemaVersion": "3.2.3",
  "updatedAt": "2020-08-10T16:18:00.336Z",
  "devdoc": {
    "kind": "dev",
    "methods": {},
    "version": 1
  },
  "userdoc": {
    "kind": "user",
    "methods": {},
    "version": 1
  }
}