{
  "contractName": "testSet",
  "abi": [
    {
      "inputs": [],
      "payable": false,
      "stateMutability": "nonpayable",
      "type": "constructor"
    },
    {
      "constant": true,
      "inputs": [],
      "name": "length",
      "outputs": [
        {
          "internalType": "uint256",
          "name": "",
          "type": "uint256"
        }
      ],
      "payable": false,
      "stateMutability": "view",
      "type": "function"
    },
    {
      "constant": true,
      "inputs": [
        {
          "internalType": "uint256",
          "name": "_index",
          "type": "uint256"
        }
      ],
      "name": "at",
      "outputs": [
        {
          "internalType": "uint256",
          "name": "",
          "type": "uint256"
        }
      ],
      "payable": false,
      "stateMutability": "view",
      "type": "function"
    },
    {
      "constant": true,
      "inputs": [
        {
          "internalType": "uint256",
          "name": "_value",
          "type": "uint256"
        }
      ],
      "name": "indexOf",
      "outputs": [
        {
          "internalType": "uint256",
          "name": "",
          "type": "uint256"
        }
      ],
      "payable": false,
      "stateMutability": "view",
      "type": "function"
    },
    {
      "constant": true,
      "inputs": [
        {
          "internalType": "uint256",
          "name": "_value",
          "type": "uint256"
        }
      ],
      "name": "contains",
      "outputs": [
        {
          "internalType": "bool",
          "name": "",
          "type": "bool"
        }
      ],
      "payable": false,
      "stateMutability": "view",
      "type": "function"
    },
    {
      "constant": true,
      "inputs": [],
      "name": "content",
      "outputs": [
        {
          "internalType": "uint256[]",
          "name": "",
          "type": "uint256[]"
        }
      ],
      "payable": false,
      "stateMutability": "view",
      "type": "function"
    },
    {
      "constant": false,
      "inputs": [
        {
          "internalType": "uint256",
          "name": "_value",
          "type": "uint256"
        }
      ],
      "name": "add",
      "outputs": [
        {
          "internalType": "bool",
          "name": "",
          "type": "bool"
        }
      ],
      "payable": false,
      "stateMutability": "nonpayable",
      "type": "function"
    },
    {
      "constant": false,
      "inputs": [
        {
          "internalType": "uint256",
          "name": "_value",
          "type": "uint256"
        }
      ],
      "name": "remove",
      "outputs": [
        {
          "internalType": "bool",
          "name": "",
          "type": "bool"
        }
      ],
      "payable": false,
      "stateMutability": "nonpayable",
      "type": "function"
    },
    {
      "constant": false,
      "inputs": [],
      "name": "clear",
      "outputs": [
        {
          "internalType": "bool",
          "name": "",
          "type": "bool"
        }
      ],
      "payable": false,
      "stateMutability": "nonpayable",
      "type": "function"
    }
  ],
  "bytecode": "0x608060405234801561001057600080fd5b506104c5806100206000396000f3fe608060405234801561001057600080fd5b50600436106100885760003560e01c80638a4d5a671161005b5780638a4d5a67146100fd57806391ac7e6514610155578063c34052e014610172578063e0886f901461018f57610088565b80631003e2d21461008d5780631f7b6d32146100be5780634cc82215146100d857806352efea6e146100f5575b600080fd5b6100aa600480360360208110156100a357600080fd5b50356101ac565b604080519115158252519081900360200190f35b6100c66101c4565b60408051918252519081900360200190f35b6100aa600480360360208110156100ee57600080fd5b50356101d6565b6100aa6101e8565b6101056101f4565b60408051602080825283518183015283519192839290830191858101910280838360005b83811015610141578181015183820152602001610129565b505050509050019250505060405180910390f35b6100c66004803603602081101561016b57600080fd5b5035610200565b6100aa6004803603602081101561018857600080fd5b5035610212565b6100c6600480360360208110156101a557600080fd5b5035610224565b60006101be818363ffffffff61023616565b92915050565b60006101d0600061027f565b90505b90565b60006101be818363ffffffff61028316565b60006101d0600061033d565b60606101d0600061039a565b60006101be818363ffffffff6103f616565b60006101be818363ffffffff61041016565b60006101be818363ffffffff61042516565b60006102428383610410565b1561024f575060006101be565b50815460018082018085556000858152602080822090940185905593845293810190915260409091209190915590565b5490565b600061028f8383610410565b61029b575060006101be565b60006102a784846103f6565b9050600060016102b68661027f565b0390508082146103105760008560000182815481106102d157fe5b90600052602060002001549050808660000184815481106102ee57fe5b6000918252602080832090910192909255918252600187019052604090208290555b60008481526001860160205260408120558454600019016103318682610449565b50600195945050505050565b6000805b82548110156103875782600101600084600001838154811061035f57fe5b9060005260206000200154815260200190815260200160002060009055806001019050610341565b5060006103948382610449565b50919050565b6060816000018054806020026020016040519081016040528092919081815260200182805480156103ea57602002820191906000526020600020905b8154815260200190600101908083116103d6575b50505050509050919050565b600090815260019190910160205260409020546000190190565b600061041c83836103f6565b15159392505050565b600082600001828154811061043657fe5b9060005260206000200154905092915050565b81548183558181111561046d5760008381526020902061046d918101908301610472565b505050565b6101d391905b8082111561048c5760008155600101610478565b509056fea265627a7a723158205f4cf0aa54cc510dd8ff7dfe3ab8eec1f78defa7acecdc3722aa579f5736c65a64736f6c634300050c0032",
  "source": "pragma solidity ^0.5.0;\n\nimport \"../libs/LibSet.uint256.sol\";\n\ncontract testSet\n{\n\tusing LibSet_uint256 for LibSet_uint256.set;\n\n\tLibSet_uint256.set internal data;\n\n\tconstructor() public {}\n\n\tfunction length  (              ) public view returns (uint256         ) { return data.length();         }\n\tfunction at      (uint256 _index) public view returns (uint256         ) { return data.at(_index);       }\n\tfunction indexOf (uint256 _value) public view returns (uint256         ) { return data.indexOf(_value);  }\n\tfunction contains(uint256 _value) public view returns (bool            ) { return data.contains(_value); }\n\tfunction content (              ) public view returns (uint256[] memory) { return data.content();        }\n\tfunction add     (uint256 _value) public      returns (bool            ) { return data.add(_value);      }\n\tfunction remove  (uint256 _value) public      returns (bool            ) { return data.remove(_value);   }\n\tfunction clear   (              ) public      returns (bool            ) { return data.clear();          }\n}\n",
  "sourcePath": "/home/amxx/Work/SolStruct/contracts/tests/testSet.sol",
  "compiler": {
    "name": "solc",
    "version": "0.5.12+commit.7709ece9.Emscripten.clang"
  },
  "schemaVersion": "3.0.17",
  "updatedAt": "2019-11-03T11:07:17.393Z",
  "devdoc": {
    "methods": {}
  },
  "userdoc": {
    "methods": {}
  }
}