{
  "contractName": "TestSet",
  "abi": [
    {
      "inputs": [],
      "stateMutability": "nonpayable",
      "type": "constructor"
    },
    {
      "inputs": [],
      "name": "length",
      "outputs": [
        {
          "internalType": "uint256",
          "name": "",
          "type": "uint256"
        }
      ],
      "stateMutability": "view",
      "type": "function"
    },
    {
      "inputs": [
        {
          "internalType": "uint256",
          "name": "_index",
          "type": "uint256"
        }
      ],
      "name": "at",
      "outputs": [
        {
          "internalType": "uint256",
          "name": "",
          "type": "uint256"
        }
      ],
      "stateMutability": "view",
      "type": "function"
    },
    {
      "inputs": [
        {
          "internalType": "uint256",
          "name": "_value",
          "type": "uint256"
        }
      ],
      "name": "indexOf",
      "outputs": [
        {
          "internalType": "uint256",
          "name": "",
          "type": "uint256"
        }
      ],
      "stateMutability": "view",
      "type": "function"
    },
    {
      "inputs": [
        {
          "internalType": "uint256",
          "name": "_value",
          "type": "uint256"
        }
      ],
      "name": "contains",
      "outputs": [
        {
          "internalType": "bool",
          "name": "",
          "type": "bool"
        }
      ],
      "stateMutability": "view",
      "type": "function"
    },
    {
      "inputs": [],
      "name": "content",
      "outputs": [
        {
          "internalType": "uint256[]",
          "name": "",
          "type": "uint256[]"
        }
      ],
      "stateMutability": "view",
      "type": "function"
    },
    {
      "inputs": [
        {
          "internalType": "uint256",
          "name": "_value",
          "type": "uint256"
        }
      ],
      "name": "add",
      "outputs": [
        {
          "internalType": "bool",
          "name": "",
          "type": "bool"
        }
      ],
      "stateMutability": "nonpayable",
      "type": "function"
    },
    {
      "inputs": [
        {
          "internalType": "uint256",
          "name": "_value",
          "type": "uint256"
        }
      ],
      "name": "remove",
      "outputs": [
        {
          "internalType": "bool",
          "name": "",
          "type": "bool"
        }
      ],
      "stateMutability": "nonpayable",
      "type": "function"
    },
    {
      "inputs": [],
      "name": "clear",
      "outputs": [
        {
          "internalType": "bool",
          "name": "",
          "type": "bool"
        }
      ],
      "stateMutability": "nonpayable",
      "type": "function"
    }
  ],
  "bytecode": "0x608060405234801561001057600080fd5b506104a8806100206000396000f3fe608060405234801561001057600080fd5b50600436106100885760003560e01c80638a4d5a671161005b5780638a4d5a67146100fd57806391ac7e6514610155578063c34052e014610172578063e0886f901461018f57610088565b80631003e2d21461008d5780631f7b6d32146100be5780634cc82215146100d857806352efea6e146100f5575b600080fd5b6100aa600480360360208110156100a357600080fd5b50356101ac565b604080519115158252519081900360200190f35b6100c66101c4565b60408051918252519081900360200190f35b6100aa600480360360208110156100ee57600080fd5b50356101d5565b6100aa6101e7565b6101056101f3565b60408051602080825283518183015283519192839290830191858101910280838360005b83811015610141578181015183820152602001610129565b505050509050019250505060405180910390f35b6100c66004803603602081101561016b57600080fd5b50356101ff565b6100aa6004803603602081101561018857600080fd5b5035610211565b6100c6600480360360208110156101a557600080fd5b5035610223565b60006101be818363ffffffff61023516565b92915050565b60006101d0600061027c565b905090565b60006101be818363ffffffff61028016565b60006101d0600061034e565b60606101d060006103c4565b60006101be818363ffffffff61042016565b60006101be818363ffffffff61043616565b60006101be818363ffffffff61044b16565b60006102418383610436565b1561024e575060006101be565b5081546001808201845560008481526020808220909301849055845493815293810190915260409092205590565b5490565b600061028c8383610436565b610298575060006101be565b60006102a48484610420565b905060006102b18561027c565b90508082146103105760008560000160018303815481106102ce57fe5b90600052602060002001549050808660000160018503815481106102ee57fe5b6000918252602080832090910192909255918252600187019052604090208290555b6000848152600186016020526040812055845485908061032c57fe5b6001900381819060005260206000200160009055905560019250505092915050565b80546000905b80156103be5782600101600084600001600184038154811061037257fe5b90600052602060002001548152602001908152602001600020600090558260000180548061039c57fe5b6001900381819060005260206000200160009055905580600190039050610354565b50919050565b60608160000180548060200260200160405190810160405280929190818152602001828054801561041457602002820191906000526020600020905b815481526020019060010190808311610400575b50505050509050919050565b6000908152600191909101602052604090205490565b60006104428383610420565b15159392505050565b600082600001600183038154811061045f57fe5b906000526020600020015490509291505056fea264697066735822122055e6034844e2f6555e6e976f10c351ed47fa5a32dc2b8dce3b1147139bbc0e1664736f6c63430006000033",
  "source": "pragma solidity >0.5.0 <0.7.0;\n\nimport \"../libs/LibSet.uint256.sol\";\n\ncontract TestSet\n{\n\tusing LibSet_uint256 for LibSet_uint256.set;\n\n\tLibSet_uint256.set internal data;\n\n\tconstructor() public {}\n\n\tfunction length  (              ) public view returns (uint256         ) { return data.length();         }\n\tfunction at      (uint256 _index) public view returns (uint256         ) { return data.at(_index);       }\n\tfunction indexOf (uint256 _value) public view returns (uint256         ) { return data.indexOf(_value);  }\n\tfunction contains(uint256 _value) public view returns (bool            ) { return data.contains(_value); }\n\tfunction content (              ) public view returns (uint256[] memory) { return data.content();        }\n\tfunction add     (uint256 _value) public      returns (bool            ) { return data.add(_value);      }\n\tfunction remove  (uint256 _value) public      returns (bool            ) { return data.remove(_value);   }\n\tfunction clear   (              ) public      returns (bool            ) { return data.clear();          }\n}\n",
  "sourcePath": "/home/amxx/Work/Projects/SolStruct/contracts/tests/TestSet.sol",
  "compiler": {
    "name": "solc",
    "version": "0.6.0+commit.26b70077.Emscripten.clang"
  },
  "schemaVersion": "3.0.20",
  "updatedAt": "2019-12-20T23:32:40.091Z",
  "devdoc": {
    "methods": {}
  },
  "userdoc": {
    "methods": {}
  }
}